{
  "_format": "hh-sol-artifact-1",
  "contractName": "DIDRegistry",
  "sourceName": "contracts/DIDRegistry.sol",
  "abi": [
    {
      "inputs": [],
      "stateMutability": "nonpayable",
      "type": "constructor"
    },
    {
      "anonymous": false,
      "inputs": [
        {
          "indexed": true,
          "internalType": "address",
          "name": "previousAdmin",
          "type": "address"
        },
        {
          "indexed": true,
          "internalType": "address",
          "name": "newAdmin",
          "type": "address"
        }
      ],
      "name": "AdminChanged",
      "type": "event"
    },
    {
      "anonymous": false,
      "inputs": [
        {
          "indexed": true,
          "internalType": "bytes32",
          "name": "userHash",
          "type": "bytes32"
        },
        {
          "indexed": false,
          "internalType": "string",
          "name": "did",
          "type": "string"
        },
        {
          "indexed": false,
          "internalType": "uint256",
          "name": "timestamp",
          "type": "uint256"
        }
      ],
      "name": "DIDRegistered",
      "type": "event"
    },
    {
      "anonymous": false,
      "inputs": [
        {
          "indexed": true,
          "internalType": "bytes32",
          "name": "userHash",
          "type": "bytes32"
        },
        {
          "indexed": false,
          "internalType": "string",
          "name": "did",
          "type": "string"
        },
        {
          "indexed": false,
          "internalType": "uint256",
          "name": "timestamp",
          "type": "uint256"
        }
      ],
      "name": "DIDRevoked",
      "type": "event"
    },
    {
      "anonymous": false,
      "inputs": [
        {
          "indexed": true,
          "internalType": "bytes32",
          "name": "userHash",
          "type": "bytes32"
        },
        {
          "indexed": false,
          "internalType": "string",
          "name": "did",
          "type": "string"
        },
        {
          "indexed": false,
          "internalType": "uint256",
          "name": "timestamp",
          "type": "uint256"
        }
      ],
      "name": "DIDUpdated",
      "type": "event"
    },
    {
      "anonymous": false,
      "inputs": [
        {
          "indexed": true,
          "internalType": "address",
          "name": "previousOwner",
          "type": "address"
        },
        {
          "indexed": true,
          "internalType": "address",
          "name": "newOwner",
          "type": "address"
        }
      ],
      "name": "OwnershipTransferred",
      "type": "event"
    },
    {
      "inputs": [],
      "name": "activeDIDs",
      "outputs": [
        {
          "internalType": "uint256",
          "name": "",
          "type": "uint256"
        }
      ],
      "stateMutability": "view",
      "type": "function"
    },
    {
      "inputs": [
        {
          "internalType": "address",
          "name": "operator",
          "type": "address"
        }
      ],
      "name": "addAuthorizedOperator",
      "outputs": [],
      "stateMutability": "nonpayable",
      "type": "function"
    },
    {
      "inputs": [
        {
          "internalType": "address",
          "name": "",
          "type": "address"
        }
      ],
      "name": "authorizedOperators",
      "outputs": [
        {
          "internalType": "bool",
          "name": "",
          "type": "bool"
        }
      ],
      "stateMutability": "view",
      "type": "function"
    },
    {
      "inputs": [
        {
          "internalType": "bytes32[]",
          "name": "userHashes",
          "type": "bytes32[]"
        },
        {
          "internalType": "string[]",
          "name": "dids",
          "type": "string[]"
        },
        {
          "internalType": "string[]",
          "name": "metadatas",
          "type": "string[]"
        }
      ],
      "name": "batchRegisterDIDs",
      "outputs": [],
      "stateMutability": "nonpayable",
      "type": "function"
    },
    {
      "inputs": [
        {
          "internalType": "string",
          "name": "did",
          "type": "string"
        }
      ],
      "name": "didExistsPublic",
      "outputs": [
        {
          "internalType": "bool",
          "name": "",
          "type": "bool"
        }
      ],
      "stateMutability": "view",
      "type": "function"
    },
    {
      "inputs": [
        {
          "internalType": "bytes32",
          "name": "",
          "type": "bytes32"
        }
      ],
      "name": "didRecords",
      "outputs": [
        {
          "internalType": "string",
          "name": "did",
          "type": "string"
        },
        {
          "internalType": "uint256",
          "name": "registrationTime",
          "type": "uint256"
        },
        {
          "internalType": "uint256",
          "name": "lastUpdateTime",
          "type": "uint256"
        },
        {
          "internalType": "bool",
          "name": "isActive",
          "type": "bool"
        },
        {
          "internalType": "bool",
          "name": "isRevoked",
          "type": "bool"
        },
        {
          "internalType": "string",
          "name": "metadata",
          "type": "string"
        }
      ],
      "stateMutability": "view",
      "type": "function"
    },
    {
      "inputs": [
        {
          "internalType": "string",
          "name": "",
          "type": "string"
        }
      ],
      "name": "didToUserHash",
      "outputs": [
        {
          "internalType": "bytes32",
          "name": "",
          "type": "bytes32"
        }
      ],
      "stateMutability": "view",
      "type": "function"
    },
    {
      "inputs": [],
      "name": "emergencyPause",
      "outputs": [],
      "stateMutability": "nonpayable",
      "type": "function"
    },
    {
      "inputs": [
        {
          "internalType": "bytes32",
          "name": "userHash",
          "type": "bytes32"
        }
      ],
      "name": "getDIDRecord",
      "outputs": [
        {
          "components": [
            {
              "internalType": "string",
              "name": "did",
              "type": "string"
            },
            {
              "internalType": "uint256",
              "name": "registrationTime",
              "type": "uint256"
            },
            {
              "internalType": "uint256",
              "name": "lastUpdateTime",
              "type": "uint256"
            },
            {
              "internalType": "bool",
              "name": "isActive",
              "type": "bool"
            },
            {
              "internalType": "bool",
              "name": "isRevoked",
              "type": "bool"
            },
            {
              "internalType": "string",
              "name": "metadata",
              "type": "string"
            }
          ],
          "internalType": "struct DIDRegistry.DIDRecord",
          "name": "",
          "type": "tuple"
        }
      ],
      "stateMutability": "view",
      "type": "function"
    },
    {
      "inputs": [],
      "name": "getStats",
      "outputs": [
        {
          "internalType": "uint256",
          "name": "total",
          "type": "uint256"
        },
        {
          "internalType": "uint256",
          "name": "active",
          "type": "uint256"
        },
        {
          "internalType": "uint256",
          "name": "revoked",
          "type": "uint256"
        }
      ],
      "stateMutability": "view",
      "type": "function"
    },
    {
      "inputs": [
        {
          "internalType": "string",
          "name": "did",
          "type": "string"
        }
      ],
      "name": "getUserHashByDID",
      "outputs": [
        {
          "internalType": "bytes32",
          "name": "",
          "type": "bytes32"
        }
      ],
      "stateMutability": "view",
      "type": "function"
    },
    {
      "inputs": [],
      "name": "owner",
      "outputs": [
        {
          "internalType": "address",
          "name": "",
          "type": "address"
        }
      ],
      "stateMutability": "view",
      "type": "function"
    },
    {
      "inputs": [
        {
          "internalType": "bytes32",
          "name": "userHash",
          "type": "bytes32"
        },
        {
          "internalType": "string",
          "name": "did",
          "type": "string"
        },
        {
          "internalType": "string",
          "name": "metadata",
          "type": "string"
        }
      ],
      "name": "registerDID",
      "outputs": [],
      "stateMutability": "nonpayable",
      "type": "function"
    },
    {
      "inputs": [
        {
          "internalType": "address",
          "name": "operator",
          "type": "address"
        }
      ],
      "name": "removeAuthorizedOperator",
      "outputs": [],
      "stateMutability": "nonpayable",
      "type": "function"
    },
    {
      "inputs": [],
      "name": "renounceOwnership",
      "outputs": [],
      "stateMutability": "nonpayable",
      "type": "function"
    },
    {
      "inputs": [
        {
          "internalType": "bytes32",
          "name": "userHash",
          "type": "bytes32"
        }
      ],
      "name": "revokeDID",
      "outputs": [],
      "stateMutability": "nonpayable",
      "type": "function"
    },
    {
      "inputs": [],
      "name": "revokedDIDs",
      "outputs": [
        {
          "internalType": "uint256",
          "name": "",
          "type": "uint256"
        }
      ],
      "stateMutability": "view",
      "type": "function"
    },
    {
      "inputs": [],
      "name": "totalDIDs",
      "outputs": [
        {
          "internalType": "uint256",
          "name": "",
          "type": "uint256"
        }
      ],
      "stateMutability": "view",
      "type": "function"
    },
    {
      "inputs": [
        {
          "internalType": "address",
          "name": "newOwner",
          "type": "address"
        }
      ],
      "name": "transferOwnership",
      "outputs": [],
      "stateMutability": "nonpayable",
      "type": "function"
    },
    {
      "inputs": [
        {
          "internalType": "bytes32",
          "name": "userHash",
          "type": "bytes32"
        },
        {
          "internalType": "string",
          "name": "newDid",
          "type": "string"
        },
        {
          "internalType": "string",
          "name": "metadata",
          "type": "string"
        }
      ],
      "name": "updateDID",
      "outputs": [],
      "stateMutability": "nonpayable",
      "type": "function"
    },
    {
      "inputs": [
        {
          "internalType": "string",
          "name": "did",
          "type": "string"
        }
      ],
      "name": "verifyDID",
      "outputs": [
        {
          "internalType": "bool",
          "name": "isValid",
          "type": "bool"
        },
        {
          "internalType": "bytes32",
          "name": "userHash",
          "type": "bytes32"
        }
      ],
      "stateMutability": "view",
      "type": "function"
    }
  ],
  "bytecode": "0x608060405234801561001057600080fd5b5061001a33610032565b60018055600060058190556006819055600755610082565b600080546001600160a01b038381166001600160a01b0319831681178455604051919092169283917f8be0079c531659141344cd1fd0a4f28419497f9722a3daafe3b4186f6b6457e09190a35050565b611fee806100916000396000f3fe608060405234801561001057600080fd5b50600436106101375760003560e01c806364894c2c116100b8578063b377e3991161007c578063b377e3991461026f578063c59d484714610294578063c81fe529146102b8578063e3f8a79c146102e3578063f2fde38b146102f6578063fd8a00561461030957600080fd5b806364894c2c1461021d578063706a2c3014610230578063715018a6146102435780638da5cb5b1461024b578063b22070f91461026657600080fd5b80634e1163d4116100ff5780634e1163d4146101d35780634e4a801e146101e657806351858e27146101f957806359fa2eab146102015780635d66b80e1461021457600080fd5b8063181d989b1461013c5780632a0505d6146101745780633e79f9261461018b578063404d2cf8146101a057806342a67940146101b3575b600080fd5b61015f61014a366004611657565b60046020526000908152604090205460ff1681565b60405190151581526020015b60405180910390f35b61017d60075481565b60405190815260200161016b565b61019e610199366004611687565b610333565b005b61019e6101ae366004611657565b6104ef565b6101c66101c1366004611687565b61056a565b60405161016b91906116f0565b61017d6101e13660046117a0565b610753565b61019e6101f43660046117e2565b61077e565b61019e610a3c565b61019e61020f3660046117e2565b610a7e565b61017d60055481565b61015f61022b3660046117a0565b610d15565b61019e61023e3660046118a1565b610d46565b61019e610f2c565b6000546040516001600160a01b03909116815260200161016b565b61017d60065481565b61028261027d366004611687565b610f40565b60405161016b9695949392919061193b565b6005546006546007546040805193845260208401929092529082015260600161016b565b61017d6102c636600461199f565b805160208183018101805160038252928201919093012091525481565b61019e6102f1366004611657565b61108e565b61019e610304366004611657565b611109565b61031c6103173660046117a0565b611182565b60408051921515835260208301919091520161016b565b6000546001600160a01b031633148061035b57503360009081526004602052604090205460ff165b6103805760405162461bcd60e51b815260040161037790611a50565b60405180910390fd5b60008181526002602052604090206001015481906103b05760405162461bcd60e51b815260040161037790611a95565b6000828152600260205260409020600301548290610100900460ff16156104195760405162461bcd60e51b815260206004820152601b60248201527f44494452656769737472793a20444944206973207265766f6b656400000000006044820152606401610377565b61042161134b565b6000838152600260208190526040918290206003808201805461ffff191661010017905542928201929092559151909161045a91611b00565b908152604051908190036020019020600090819055600680549161047d83611b8c565b90915550506007805490600061049283611ba3565b909155505060008381526002602052604090819020905184917f0b768d915bb0b1f974452fca314dc00b33579702a3a8a971e9957fbe52b2c49c916104d991904290611bbc565b60405180910390a26104ea60018055565b505050565b6104f76113a4565b6001600160a01b03811661051d5760405162461bcd60e51b815260040161037790611c50565b6001600160a01b038116600081815260046020526040808220805460ff19166001179055517f7e644d79422f17c01e4894b5f4f588d331ebfa28653d42ae832dc59e38c9798f908290a350565b6105a76040518060c00160405280606081526020016000815260200160008152602001600015158152602001600015158152602001606081525090565b60008281526002602052604090206001015482906105d75760405162461bcd60e51b815260040161037790611a95565b60008381526002602052604090819020815160c081019092528054829082906105ff90611acc565b80601f016020809104026020016040519081016040528092919081815260200182805461062b90611acc565b80156106785780601f1061064d57610100808354040283529160200191610678565b820191906000526020600020905b81548152906001019060200180831161065b57829003601f168201915b50505091835250506001820154602082015260028201546040820152600382015460ff80821615156060840152610100909104161515608082015260048201805460a0909201916106c890611acc565b80601f01602080910402602001604051908101604052809291908181526020018280546106f490611acc565b80156107415780601f1061071657610100808354040283529160200191610741565b820191906000526020600020905b81548152906001019060200180831161072457829003601f168201915b50505050508152505091505b50919050565b600060038383604051610767929190611c95565b908152602001604051809103902054905092915050565b6000546001600160a01b03163314806107a657503360009081526004602052604090205460ff165b6107c25760405162461bcd60e51b815260040161037790611a50565b6000858152600260205260409020600101548590156108235760405162461bcd60e51b815260206004820152601f60248201527f44494452656769737472793a2044494420616c726561647920657869737473006044820152606401610377565b61082b61134b565b836108485760405162461bcd60e51b815260040161037790611ca5565b6000801b6003868660405161085e929190611c95565b9081526020016040518091039020541461088a5760405162461bcd60e51b815260040161037790611cda565b6040805160e06020601f8801819004028201810190925260c081018681526000928291908990899081908501838280828437600092018290525093855250504260208085018290526040808601929092526001606086015260808501939093528051601f890184900484028101840190915287815260a0909301929188915087908190840183828082843760009201829052509390945250508981526002602052604090208251929350839290915081906109459082611d63565b5060208201516001820155604082015160028201556060820151600382018054608085015115156101000261ff00199315159390931661ffff199091161791909117905560a0820151600482019061099d9082611d63565b5090505086600387876040516109b4929190611c95565b90815260405190819003602001902055600580549060006109d483611ba3565b9091555050600680549060006109e983611ba3565b9190505550867f18490df446b73e314a85158f23bec81e7545e114322057d14d2a18cc3707ca28878742604051610a2293929190611e23565b60405180910390a250610a3460018055565b505050505050565b610a446113a4565b600080546040516001600160a01b03909116907f7e644d79422f17c01e4894b5f4f588d331ebfa28653d42ae832dc59e38c9798f908390a3565b6000546001600160a01b0316331480610aa657503360009081526004602052604090205460ff165b610ac25760405162461bcd60e51b815260040161037790611a50565b6000858152600260205260409020600101548590610af25760405162461bcd60e51b815260040161037790611a95565b6000868152600260205260409020600301548690610100900460ff1615610b5b5760405162461bcd60e51b815260206004820152601b60248201527f44494452656769737472793a20444944206973207265766f6b656400000000006044820152606401610377565b610b6361134b565b84610b805760405162461bcd60e51b815260040161037790611ca5565b60008781526002602052604081208054610b9990611acc565b80601f0160208091040260200160405190810160405280929190818152602001828054610bc590611acc565b8015610c125780601f10610be757610100808354040283529160200191610c12565b820191906000526020600020905b815481529060010190602001808311610bf557829003601f168201915b505050505090508686604051610c29929190611c95565b6040518091039020818051906020012014610c8457600381604051610c4e9190611e5c565b9081526020016040518091039020600090558760038888604051610c73929190611c95565b908152604051908190036020019020555b6000888152600260205260409020610c9d878983611e78565b5060008881526002602081905260409091204291810191909155600401610cc5858783611e78565b50877f30e2678ca00cc5f664f4a1b83f94f97a2ba31c2039aeb16683a84bf992135b9b888842604051610cfa93929190611e23565b60405180910390a250610d0c60018055565b50505050505050565b60008060001b60038484604051610d2d929190611c95565b9081526020016040518091039020541415905092915050565b6000546001600160a01b0316331480610d6e57503360009081526004602052604090205460ff165b610d8a5760405162461bcd60e51b815260040161037790611a50565b610d9261134b565b8483148015610da057508281145b610dfa5760405162461bcd60e51b815260206004820152602560248201527f44494452656769737472793a206172726179206c656e67746873206d757374206044820152640dac2e8c6d60db1b6064820152608401610377565b60005b85811015610f225760026000888884818110610e1b57610e1b611f39565b90506020020135815260200190815260200160002060010154600003610f1057610f10878783818110610e5057610e50611f39565b90506020020135868684818110610e6957610e69611f39565b9050602002810190610e7b9190611f4f565b8080601f016020809104026020016040519081016040528093929190818152602001838380828437600092019190915250889250879150869050818110610ec457610ec4611f39565b9050602002810190610ed69190611f4f565b8080601f0160208091040260200160405190810160405280939291908181526020018383808284376000920191909152506113fe92505050565b80610f1a81611ba3565b915050610dfd565b50610a3460018055565b610f346113a4565b610f3e6000611607565b565b600260205260009081526040902080548190610f5b90611acc565b80601f0160208091040260200160405190810160405280929190818152602001828054610f8790611acc565b8015610fd45780601f10610fa957610100808354040283529160200191610fd4565b820191906000526020600020905b815481529060010190602001808311610fb757829003601f168201915b505050506001830154600284015460038501546004860180549596939592945060ff80831694610100909304169261100b90611acc565b80601f016020809104026020016040519081016040528092919081815260200182805461103790611acc565b80156110845780601f1061105957610100808354040283529160200191611084565b820191906000526020600020905b81548152906001019060200180831161106757829003601f168201915b5050505050905086565b6110966113a4565b6001600160a01b0381166110bc5760405162461bcd60e51b815260040161037790611c50565b6001600160a01b038116600081815260046020526040808220805460ff19169055519091907f7e644d79422f17c01e4894b5f4f588d331ebfa28653d42ae832dc59e38c9798f908390a350565b6111116113a4565b6001600160a01b0381166111765760405162461bcd60e51b815260206004820152602660248201527f4f776e61626c653a206e6577206f776e657220697320746865207a65726f206160448201526564647265737360d01b6064820152608401610377565b61117f81611607565b50565b60008060038484604051611197929190611c95565b908152604051908190036020019020549050806111b957506000905080611344565b600081815260026020526040808220815160c081019092528054829082906111e090611acc565b80601f016020809104026020016040519081016040528092919081815260200182805461120c90611acc565b80156112595780601f1061122e57610100808354040283529160200191611259565b820191906000526020600020905b81548152906001019060200180831161123c57829003601f168201915b50505091835250506001820154602082015260028201546040820152600382015460ff80821615156060840152610100909104161515608082015260048201805460a0909201916112a990611acc565b80601f01602080910402602001604051908101604052809291908181526020018280546112d590611acc565b80156113225780601f106112f757610100808354040283529160200191611322565b820191906000526020600020905b81548152906001019060200180831161130557829003601f168201915b50505050508152505090508060600151801561134057508060800151155b9250505b9250929050565b60026001540361139d5760405162461bcd60e51b815260206004820152601f60248201527f5265656e7472616e637947756172643a207265656e7472616e742063616c6c006044820152606401610377565b6002600155565b6000546001600160a01b03163314610f3e5760405162461bcd60e51b815260206004820181905260248201527f4f776e61626c653a2063616c6c6572206973206e6f7420746865206f776e65726044820152606401610377565b600082511161141f5760405162461bcd60e51b815260040161037790611ca5565b6000801b6003836040516114339190611e5c565b9081526020016040518091039020541461145f5760405162461bcd60e51b815260040161037790611cda565b600083815260026020526040902060010154156114cf5760405162461bcd60e51b815260206004820152602860248201527f44494452656769737472793a2055736572206861736820616c72656164792068604482015267185cc8184811125160c21b6064820152608401610377565b6040805160c081018252838152426020808301829052828401919091526001606083015260006080830181905260a08301859052868152600290915291909120815182919081906115209082611d63565b5060208201516001820155604082015160028201556060820151600382018054608085015115156101000261ff00199315159390931661ffff199091161791909117905560a082015160048201906115789082611d63565b509050508360038460405161158d9190611e5c565b90815260405190819003602001902055600580549060006115ad83611ba3565b9091555050600680549060006115c283611ba3565b9190505550837f18490df446b73e314a85158f23bec81e7545e114322057d14d2a18cc3707ca2884426040516115f9929190611f96565b60405180910390a250505050565b600080546001600160a01b038381166001600160a01b0319831681178455604051919092169283917f8be0079c531659141344cd1fd0a4f28419497f9722a3daafe3b4186f6b6457e09190a35050565b60006020828403121561166957600080fd5b81356001600160a01b038116811461168057600080fd5b9392505050565b60006020828403121561169957600080fd5b5035919050565b60005b838110156116bb5781810151838201526020016116a3565b50506000910152565b600081518084526116dc8160208601602086016116a0565b601f01601f19169290920160200192915050565b602081526000825160c0602084015261170c60e08401826116c4565b905060208401516040840152604084015160608401526060840151151560808401526080840151151560a084015260a0840151601f198483030160c085015261175582826116c4565b95945050505050565b60008083601f84011261177057600080fd5b50813567ffffffffffffffff81111561178857600080fd5b60208301915083602082850101111561134457600080fd5b600080602083850312156117b357600080fd5b823567ffffffffffffffff8111156117ca57600080fd5b6117d68582860161175e565b90969095509350505050565b6000806000806000606086880312156117fa57600080fd5b85359450602086013567ffffffffffffffff8082111561181957600080fd5b61182589838a0161175e565b9096509450604088013591508082111561183e57600080fd5b5061184b8882890161175e565b969995985093965092949392505050565b60008083601f84011261186e57600080fd5b50813567ffffffffffffffff81111561188657600080fd5b6020830191508360208260051b850101111561134457600080fd5b600080600080600080606087890312156118ba57600080fd5b863567ffffffffffffffff808211156118d257600080fd5b6118de8a838b0161185c565b909850965060208901359150808211156118f757600080fd5b6119038a838b0161185c565b9096509450604089013591508082111561191c57600080fd5b5061192989828a0161185c565b979a9699509497509295939492505050565b60c08152600061194e60c08301896116c4565b8760208401528660408401528515156060840152841515608084015282810360a084015261197c81856116c4565b9998505050505050505050565b634e487b7160e01b600052604160045260246000fd5b6000602082840312156119b157600080fd5b813567ffffffffffffffff808211156119c957600080fd5b818401915084601f8301126119dd57600080fd5b8135818111156119ef576119ef611989565b604051601f8201601f19908116603f01168101908382118183101715611a1757611a17611989565b81604052828152876020848701011115611a3057600080fd5b826020860160208301376000928101602001929092525095945050505050565b60208082526025908201527f44494452656769737472793a2063616c6c6572206973206e6f7420617574686f6040820152641c9a5e995960da1b606082015260800190565b6020808252601f908201527f44494452656769737472793a2044494420646f6573206e6f7420657869737400604082015260600190565b600181811c90821680611ae057607f821691505b60208210810361074d57634e487b7160e01b600052602260045260246000fd5b6000808354611b0e81611acc565b60018281168015611b265760018114611b3b57611b6a565b60ff1984168752821515830287019450611b6a565b8760005260208060002060005b85811015611b615781548a820152908401908201611b48565b50505082870194505b50929695505050505050565b634e487b7160e01b600052601160045260246000fd5b600081611b9b57611b9b611b76565b506000190190565b600060018201611bb557611bb5611b76565b5060010190565b604081526000808454611bce81611acc565b8060408601526060600180841660008114611bf05760018114611c0a57611c3b565b60ff1985168884015283151560051b880183019550611c3b565b8960005260208060002060005b86811015611c325781548b8201870152908401908201611c17565b8a018501975050505b50505050506020929092019290925292915050565b60208082526025908201527f44494452656769737472793a20696e76616c6964206f70657261746f72206164604082015264647265737360d81b606082015260800190565b8183823760009101908152919050565b6020808252818101527f44494452656769737472793a204449442063616e6e6f7420626520656d707479604082015260600190565b60208082526023908201527f44494452656769737472793a2044494420616c726561647920726567697374656040820152621c995960ea1b606082015260800190565b601f8211156104ea57600081815260208120601f850160051c81016020861015611d445750805b601f850160051c820191505b81811015610a3457828155600101611d50565b815167ffffffffffffffff811115611d7d57611d7d611989565b611d9181611d8b8454611acc565b84611d1d565b602080601f831160018114611dc65760008415611dae5750858301515b600019600386901b1c1916600185901b178555610a34565b600085815260208120601f198616915b82811015611df557888601518255948401946001909101908401611dd6565b5085821015611e135787850151600019600388901b60f8161c191681555b5050505050600190811b01905550565b604081528260408201528284606083013760006060848301015260006060601f19601f8601168301019050826020830152949350505050565b60008251611e6e8184602087016116a0565b9190910192915050565b67ffffffffffffffff831115611e9057611e90611989565b611ea483611e9e8354611acc565b83611d1d565b6000601f841160018114611ed85760008515611ec05750838201355b600019600387901b1c1916600186901b178355611f32565b600083815260209020601f19861690835b82811015611f095786850135825560209485019460019092019101611ee9565b5086821015611f265760001960f88860031b161c19848701351681555b505060018560011b0183555b5050505050565b634e487b7160e01b600052603260045260246000fd5b6000808335601e19843603018112611f6657600080fd5b83018035915067ffffffffffffffff821115611f8157600080fd5b60200191503681900382131561134457600080fd5b604081526000611fa960408301856116c4565b9050826020830152939250505056fea26469706673582212206b33f078c96c31509b541490b9e614e955c236e438fb884aac8c8fa9df72ee5664736f6c63430008130033",
  "linkReferences": {},
  "deployedLinkReferences": {}
}